{
  "contractName": "Dappgram",
  "abi": [
    {
      "anonymous": false,
      "inputs": [
        {
          "indexed": false,
          "internalType": "uint256",
          "name": "tipAmount",
          "type": "uint256"
        }
      ],
      "name": "ImageTipped",
      "type": "event"
    },
    {
      "anonymous": false,
      "inputs": [
        {
          "indexed": false,
          "internalType": "uint256",
          "name": "id",
          "type": "uint256"
        },
        {
          "indexed": false,
          "internalType": "string",
          "name": "hash",
          "type": "string"
        },
        {
          "indexed": false,
          "internalType": "string",
          "name": "description",
          "type": "string"
        },
        {
          "indexed": false,
          "internalType": "uint256",
          "name": "tipAmount",
          "type": "uint256"
        },
        {
          "indexed": false,
          "internalType": "address payable",
          "name": "author",
          "type": "address"
        }
      ],
      "name": "ImageUploaded",
      "type": "event"
    },
    {
      "inputs": [
        {
          "internalType": "uint256",
          "name": "",
          "type": "uint256"
        }
      ],
      "name": "images",
      "outputs": [
        {
          "internalType": "uint256",
          "name": "id",
          "type": "uint256"
        },
        {
          "internalType": "string",
          "name": "hash",
          "type": "string"
        },
        {
          "internalType": "string",
          "name": "description",
          "type": "string"
        },
        {
          "internalType": "uint256",
          "name": "tipAmount",
          "type": "uint256"
        },
        {
          "internalType": "address payable",
          "name": "author",
          "type": "address"
        }
      ],
      "stateMutability": "view",
      "type": "function",
      "constant": true
    },
    {
      "inputs": [],
      "name": "imagesCount",
      "outputs": [
        {
          "internalType": "uint256",
          "name": "",
          "type": "uint256"
        }
      ],
      "stateMutability": "view",
      "type": "function",
      "constant": true
    },
    {
      "inputs": [],
      "name": "name",
      "outputs": [
        {
          "internalType": "string",
          "name": "",
          "type": "string"
        }
      ],
      "stateMutability": "view",
      "type": "function",
      "constant": true
    },
    {
      "inputs": [
        {
          "internalType": "string",
          "name": "_imgHash",
          "type": "string"
        },
        {
          "internalType": "string",
          "name": "_description",
          "type": "string"
        }
      ],
      "name": "uploadImages",
      "outputs": [],
      "stateMutability": "nonpayable",
      "type": "function"
    },
    {
      "inputs": [
        {
          "internalType": "uint256",
          "name": "_id",
          "type": "uint256"
        }
      ],
      "name": "tipImageOwner",
      "outputs": [],
      "stateMutability": "payable",
      "type": "function",
      "payable": true
    }
  ],
  "bytecode": "0x60806040526040518060400160405280600881526020017f646170706772616d0000000000000000000000000000000000000000000000008152506000908051906020019061004f929190610067565b50600060015534801561006157600080fd5b50610112565b828054600181600116156101000203166002900490600052602060002090601f01602090048101928261009d57600085556100e4565b82601f106100b657805160ff19168380011785556100e4565b828001600101855582156100e4579182015b828111156100e35782518255916020019190600101906100c8565b5b5090506100f191906100f5565b5090565b5b8082111561010e5760008160009055506001016100f6565b5090565b610d3b806101216000396000f3fe60806040526004361061004a5760003560e01c806306fdde031461004f57806349e96395146100df57806356e224af1461023e57806384856482146102695780638567ade8146103b4575b600080fd5b34801561005b57600080fd5b506100646103e2565b6040518080602001828103825283818151815260200191508051906020019080838360005b838110156100a4578082015181840152602081019050610089565b50505050905090810190601f1680156100d15780820380516001836020036101000a031916815260200191505b509250505060405180910390f35b3480156100eb57600080fd5b5061023c6004803603604081101561010257600080fd5b810190808035906020019064010000000081111561011f57600080fd5b82018360208201111561013157600080fd5b8035906020019184600183028401116401000000008311171561015357600080fd5b91908080601f016020809104026020016040519081016040528093929190818152602001838380828437600081840152601f19601f820116905080830192505050505050509192919290803590602001906401000000008111156101b657600080fd5b8201836020820111156101c857600080fd5b803590602001918460018302840111640100000000831117156101ea57600080fd5b91908080601f016020809104026020016040519081016040528093929190818152602001838380828437600081840152601f19601f820116905080830192505050505050509192919290505050610480565b005b34801561024a57600080fd5b50610253610717565b6040518082815260200191505060405180910390f35b34801561027557600080fd5b506102a26004803603602081101561028c57600080fd5b810190808035906020019092919050505061071d565b6040518086815260200180602001806020018581526020018473ffffffffffffffffffffffffffffffffffffffff168152602001838103835287818151815260200191508051906020019080838360005b8381101561030e5780820151818401526020810190506102f3565b50505050905090810190601f16801561033b5780820380516001836020036101000a031916815260200191505b50838103825286818151815260200191508051906020019080838360005b83811015610374578082015181840152602081019050610359565b50505050905090810190601f1680156103a15780820380516001836020036101000a031916815260200191505b5097505050505050505060405180910390f35b6103e0600480360360208110156103ca57600080fd5b81019080803590602001909291905050506108a3565b005b60008054600181600116156101000203166002900480601f0160208091040260200160405190810160405280929190818152602001828054600181600116156101000203166002900480156104785780601f1061044d57610100808354040283529160200191610478565b820191906000526020600020905b81548152906001019060200180831161045b57829003601f168201915b505050505081565b600081511161048e57600080fd5b600082511161049c57600080fd5b600073ffffffffffffffffffffffffffffffffffffffff163373ffffffffffffffffffffffffffffffffffffffff1614156104d657600080fd5b6001806000828254019250508190555060003390506040518060a001604052806001548152602001848152602001838152602001600081526020018273ffffffffffffffffffffffffffffffffffffffff16815250600260006001548152602001908152602001600020600082015181600001556020820151816001019080519060200190610566929190610c15565b506040820151816002019080519060200190610583929190610c15565b506060820151816003015560808201518160040160006101000a81548173ffffffffffffffffffffffffffffffffffffffff021916908373ffffffffffffffffffffffffffffffffffffffff1602179055509050507f1a409fdd5763d6f632cc0ec92624ec448fae2c874dc340879889ed07b57f9bde60015484846000856040518086815260200180602001806020018581526020018473ffffffffffffffffffffffffffffffffffffffff168152602001838103835287818151815260200191508051906020019080838360005b8381101561066d578082015181840152602081019050610652565b50505050905090810190601f16801561069a5780820380516001836020036101000a031916815260200191505b50838103825286818151815260200191508051906020019080838360005b838110156106d35780820151818401526020810190506106b8565b50505050905090810190601f1680156107005780820380516001836020036101000a031916815260200191505b5097505050505050505060405180910390a1505050565b60015481565b6002602052806000526040600020600091509050806000015490806001018054600181600116156101000203166002900480601f0160208091040260200160405190810160405280929190818152602001828054600181600116156101000203166002900480156107cf5780601f106107a4576101008083540402835291602001916107cf565b820191906000526020600020905b8154815290600101906020018083116107b257829003601f168201915b505050505090806002018054600181600116156101000203166002900480601f01602080910402602001604051908101604052809291908181526020018280546001816001161561010002031660029004801561086d5780601f106108425761010080835404028352916020019161086d565b820191906000526020600020905b81548152906001019060200180831161085057829003601f168201915b5050505050908060030154908060040160009054906101000a900473ffffffffffffffffffffffffffffffffffffffff16905085565b6000811180156108b557506001548111155b6108be57600080fd5b6108c6610ca3565b600260008381526020019081526020016000206040518060a001604052908160008201548152602001600182018054600181600116156101000203166002900480601f0160208091040260200160405190810160405280929190818152602001828054600181600116156101000203166002900480156109875780601f1061095c57610100808354040283529160200191610987565b820191906000526020600020905b81548152906001019060200180831161096a57829003601f168201915b50505050508152602001600282018054600181600116156101000203166002900480601f016020809104026020016040519081016040528092919081815260200182805460018160011615610100020316600290048015610a295780601f106109fe57610100808354040283529160200191610a29565b820191906000526020600020905b815481529060010190602001808311610a0c57829003601f168201915b50505050508152602001600382015481526020016004820160009054906101000a900473ffffffffffffffffffffffffffffffffffffffff1673ffffffffffffffffffffffffffffffffffffffff1673ffffffffffffffffffffffffffffffffffffffff168152505090506000816080015190508073ffffffffffffffffffffffffffffffffffffffff163373ffffffffffffffffffffffffffffffffffffffff161415610ad657600080fd5b8073ffffffffffffffffffffffffffffffffffffffff166108fc349081150290604051600060405180830381858888f19350505050158015610b1c573d6000803e3d6000fd5b50348260600181815101915081815250508160026000858152602001908152602001600020600082015181600001556020820151816001019080519060200190610b67929190610c15565b506040820151816002019080519060200190610b84929190610c15565b506060820151816003015560808201518160040160006101000a81548173ffffffffffffffffffffffffffffffffffffffff021916908373ffffffffffffffffffffffffffffffffffffffff1602179055509050507f7b789ede3c0baf75ffa23f2ed33e9c8c5b4a4386cc1ba6f55a56b31ea2e47be5346040518082815260200191505060405180910390a1505050565b828054600181600116156101000203166002900490600052602060002090601f016020900481019282610c4b5760008555610c92565b82601f10610c6457805160ff1916838001178555610c92565b82800160010185558215610c92579182015b82811115610c91578251825591602001919060010190610c76565b5b509050610c9f9190610ce8565b5090565b6040518060a0016040528060008152602001606081526020016060815260200160008152602001600073ffffffffffffffffffffffffffffffffffffffff1681525090565b5b80821115610d01576000816000905550600101610ce9565b509056fea26469706673582212202e906a86e858b839c845eb4d9a96e82fb3f62f6f006457848dd39f3b328f406e64736f6c63430007040033",
  "immutableReferences": {},
  "source": "// SPDX-License-Identifier: UNLICENSED\npragma solidity 0.7.4;\n\ncontract Dappgram {\n\n  string public name = \"dappgram\";\n  uint public imagesCount = 0;\n  // Store Images\n  mapping(uint => Image) public images;\n  struct Image {\n    uint id;\n    string hash;\n    string description;\n    uint tipAmount;\n    address payable author;\n  }\n\n  // events\n  event ImageUploaded(\n    uint id, \n    string hash, \n    string description, \n    uint tipAmount, \n    address payable author\n  );\n\n  event ImageTipped(\n    uint tipAmount\n  );\n\n  // Create Images\n  function uploadImages(string memory _imgHash, string memory _description) public {\n    require(bytes(_description).length > 0); // with a valid description\n    require(bytes(_imgHash).length > 0); // with a valid img\n    require(msg.sender != address(0)); // not a valid address\n\n    imagesCount += 1; // Increment image id\n    address payable sender = msg.sender;\n    images[imagesCount] = Image(imagesCount, _imgHash, _description, 0, sender);\n    emit ImageUploaded(imagesCount, _imgHash, _description, 0, sender);\n  }\n\n  // Tip Images\n  function tipImageOwner(uint _id) public payable {\n    require(_id > 0 && _id <= imagesCount);\n\n    Image memory image = images[_id];\n    address payable author = image.author;\n\n    require(msg.sender != author);\n    \n    author.transfer(msg.value); // pay to the image's author\n    image.tipAmount += msg.value;\n    images[_id] = image;\n    emit ImageTipped(\n      msg.value\n    );\n  }\n\n}",
  "sourcePath": "/Users/iluiscastillo/Documents/blockchain/training/dappgram/contracts/Dappgram.sol",
  "compiler": {
    "name": "solc",
    "version": "0.7.4+commit.3f05b770.Emscripten.clang"
  },
  "schemaVersion": "3.3.4",
  "updatedAt": "2021-03-20T22:44:41.413Z",
  "networkType": "ethereum",
  "devdoc": {
    "kind": "dev",
    "methods": {},
    "version": 1
  },
  "userdoc": {
    "kind": "user",
    "methods": {},
    "version": 1
  }
}